{
    "contractName": "abc",
    "abi": [
        {
            "inputs": [],
            "name": "add",
            "outputs": [],
            "stateMutability": "nonpayable",
            "type": "function"
        },
        {
            "inputs": [],
            "name": "getValueofa",
            "outputs": [
                {
                    "internalType": "uint256",
                    "name": "",
                    "type": "uint256"
                }
            ],
            "stateMutability": "view",
            "type": "function"
        },
        {
            "inputs": [],
            "name": "getValueofb",
            "outputs": [
                {
                    "internalType": "uint256",
                    "name": "",
                    "type": "uint256"
                }
            ],
            "stateMutability": "view",
            "type": "function"
        },
        {
            "inputs": [],
            "name": "getValueofc",
            "outputs": [
                {
                    "internalType": "uint256",
                    "name": "",
                    "type": "uint256"
                }
            ],
            "stateMutability": "view",
            "type": "function"
        },
        {
            "inputs": [],
            "name": "mul",
            "outputs": [],
            "stateMutability": "nonpayable",
            "type": "function"
        },
        {
            "inputs": [],
            "name": "sub",
            "outputs": [],
            "stateMutability": "nonpayable",
            "type": "function"
        }
    ],
    "bytecode": "608060405260096000556009600155600060025534801561001f57600080fd5b506101768061002f6000396000f3fe608060405234801561001057600080fd5b50600436106100625760003560e01c806349235ee5146100675780634f2be91f1461007d57806358931c46146100875780638513c9801461008f578063c54124be14610097578063e3e733991461009f575b600080fd5b6002545b60405190815260200160405180910390f35b6100856100a7565b005b6100856100bc565b60015461006b565b6100856100cc565b60005461006b565b6001546000546100b791906100dc565b600255565b6001546000546100b791906100f4565b6001546000546100b79190610113565b600082198211156100ef576100ef61012a565b500190565b600081600019048311821515161561010e5761010e61012a565b500290565b6000828210156101255761012561012a565b500390565b634e487b7160e01b600052601160045260246000fdfea264697066735822122074a5bfb2b4bf190447a8994c4da553016c5c9cf29feabc212a12f49d49aa69e464736f6c63430008060033",
    "sourcePath": "c:/Users/Rajan/Desktop/workshops/smartcontract/contracts/abc.sol",
    "compiler": {
        "name": "solc",
        "version": "0.8.6+commit.11564f7e"
    },
    "functionHashes": {
        "add()": "4f2be91f",
        "getValueofa()": "e3e73399",
        "getValueofb()": "8513c980",
        "getValueofc()": "49235ee5",
        "mul()": "58931c46",
        "sub()": "c54124be"
    },
    "gasEstimates": {
        "creation": {
            "codeDepositCost": "74800",
            "executionCost": "49341",
            "totalCost": "124141"
        },
        "external": {
            "add()": "26523",
            "getValueofa()": "2368",
            "getValueofb()": "2324",
            "getValueofc()": "2247",
            "mul()": "26567",
            "sub()": "26586"
        }
    }
}